{
  "_format": "hh-sol-artifact-1",
  "contractName": "MedicalRegistry",
  "sourceName": "contracts/MedicalRegistry.sol",
  "abi": [
    {
      "anonymous": false,
      "inputs": [
        {
          "indexed": true,
          "internalType": "bytes32",
          "name": "requestId",
          "type": "bytes32"
        },
        {
          "indexed": true,
          "internalType": "address",
          "name": "doctor",
          "type": "address"
        },
        {
          "indexed": true,
          "internalType": "address",
          "name": "patient",
          "type": "address"
        },
        {
          "indexed": false,
          "internalType": "string",
          "name": "sharedDataCid",
          "type": "string"
        }
      ],
      "name": "AccessApproved",
      "type": "event"
    },
    {
      "anonymous": false,
      "inputs": [
        {
          "indexed": true,
          "internalType": "bytes32",
          "name": "requestId",
          "type": "bytes32"
        },
        {
          "indexed": true,
          "internalType": "address",
          "name": "doctor",
          "type": "address"
        },
        {
          "indexed": true,
          "internalType": "address",
          "name": "patient",
          "type": "address"
        }
      ],
      "name": "AccessDenied",
      "type": "event"
    },
    {
      "anonymous": false,
      "inputs": [
        {
          "indexed": true,
          "internalType": "address",
          "name": "doctor",
          "type": "address"
        },
        {
          "indexed": true,
          "internalType": "address",
          "name": "patient",
          "type": "address"
        }
      ],
      "name": "AccessExpired",
      "type": "event"
    },
    {
      "anonymous": false,
      "inputs": [
        {
          "indexed": true,
          "internalType": "address",
          "name": "patient",
          "type": "address"
        },
        {
          "indexed": true,
          "internalType": "address",
          "name": "provider",
          "type": "address"
        }
      ],
      "name": "AccessGranted",
      "type": "event"
    },
    {
      "anonymous": false,
      "inputs": [
        {
          "indexed": true,
          "internalType": "bytes32",
          "name": "requestId",
          "type": "bytes32"
        },
        {
          "indexed": true,
          "internalType": "address",
          "name": "doctor",
          "type": "address"
        },
        {
          "indexed": true,
          "internalType": "address",
          "name": "patient",
          "type": "address"
        },
        {
          "indexed": false,
          "internalType": "uint256",
          "name": "duration",
          "type": "uint256"
        }
      ],
      "name": "AccessRequested",
      "type": "event"
    },
    {
      "anonymous": false,
      "inputs": [
        {
          "indexed": true,
          "internalType": "address",
          "name": "patient",
          "type": "address"
        },
        {
          "indexed": true,
          "internalType": "address",
          "name": "provider",
          "type": "address"
        }
      ],
      "name": "AccessRevoked",
      "type": "event"
    },
    {
      "anonymous": false,
      "inputs": [
        {
          "indexed": true,
          "internalType": "address",
          "name": "patient",
          "type": "address"
        },
        {
          "indexed": true,
          "internalType": "address",
          "name": "provider",
          "type": "address"
        }
      ],
      "name": "EmergencyAccessUsed",
      "type": "event"
    },
    {
      "anonymous": false,
      "inputs": [
        {
          "indexed": true,
          "internalType": "address",
          "name": "patient",
          "type": "address"
        },
        {
          "indexed": false,
          "internalType": "string",
          "name": "cid",
          "type": "string"
        }
      ],
      "name": "EmergencyDataUpdated",
      "type": "event"
    },
    {
      "anonymous": false,
      "inputs": [
        {
          "indexed": true,
          "internalType": "address",
          "name": "patient",
          "type": "address"
        }
      ],
      "name": "PatientRegistered",
      "type": "event"
    },
    {
      "anonymous": false,
      "inputs": [
        {
          "indexed": true,
          "internalType": "address",
          "name": "patient",
          "type": "address"
        },
        {
          "indexed": true,
          "internalType": "bytes32",
          "name": "recordId",
          "type": "bytes32"
        },
        {
          "indexed": false,
          "internalType": "string",
          "name": "cid",
          "type": "string"
        },
        {
          "indexed": false,
          "internalType": "address",
          "name": "provider",
          "type": "address"
        }
      ],
      "name": "RecordAdded",
      "type": "event"
    },
    {
      "anonymous": false,
      "inputs": [
        {
          "indexed": true,
          "internalType": "address",
          "name": "patient",
          "type": "address"
        },
        {
          "indexed": true,
          "internalType": "bytes32",
          "name": "recordId",
          "type": "bytes32"
        },
        {
          "indexed": false,
          "internalType": "string",
          "name": "newCid",
          "type": "string"
        },
        {
          "indexed": false,
          "internalType": "uint256",
          "name": "newVersion",
          "type": "uint256"
        }
      ],
      "name": "RecordUpdated",
      "type": "event"
    },
    {
      "inputs": [
        {
          "internalType": "address",
          "name": "patientAddress",
          "type": "address"
        },
        {
          "internalType": "bytes32",
          "name": "recordId",
          "type": "bytes32"
        },
        {
          "internalType": "string",
          "name": "cid",
          "type": "string"
        },
        {
          "internalType": "uint256",
          "name": "timestamp",
          "type": "uint256"
        }
      ],
      "name": "addRecord",
      "outputs": [],
      "stateMutability": "nonpayable",
      "type": "function"
    },
    {
      "inputs": [
        {
          "internalType": "bytes32",
          "name": "requestId",
          "type": "bytes32"
        },
        {
          "internalType": "bytes32[]",
          "name": "approvedRecords",
          "type": "bytes32[]"
        },
        {
          "internalType": "string",
          "name": "sharedDataCid",
          "type": "string"
        }
      ],
      "name": "approveAccess",
      "outputs": [],
      "stateMutability": "nonpayable",
      "type": "function"
    },
    {
      "inputs": [
        {
          "internalType": "address",
          "name": "patientAddress",
          "type": "address"
        },
        {
          "internalType": "address",
          "name": "doctor",
          "type": "address"
        }
      ],
      "name": "cleanupExpiredAccess",
      "outputs": [],
      "stateMutability": "nonpayable",
      "type": "function"
    },
    {
      "inputs": [
        {
          "internalType": "bytes32",
          "name": "requestId",
          "type": "bytes32"
        }
      ],
      "name": "denyAccess",
      "outputs": [],
      "stateMutability": "nonpayable",
      "type": "function"
    },
    {
      "inputs": [
        {
          "internalType": "address",
          "name": "patientAddress",
          "type": "address"
        }
      ],
      "name": "emergencyAccess",
      "outputs": [],
      "stateMutability": "nonpayable",
      "type": "function"
    },
    {
      "inputs": [
        {
          "internalType": "bytes32",
          "name": "requestId",
          "type": "bytes32"
        }
      ],
      "name": "getAccessRequest",
      "outputs": [
        {
          "internalType": "address",
          "name": "doctor",
          "type": "address"
        },
        {
          "internalType": "address",
          "name": "patient",
          "type": "address"
        },
        {
          "internalType": "bytes32[]",
          "name": "requestedRecords",
          "type": "bytes32[]"
        },
        {
          "internalType": "string",
          "name": "reason",
          "type": "string"
        },
        {
          "internalType": "uint256",
          "name": "requestedDuration",
          "type": "uint256"
        },
        {
          "internalType": "uint256",
          "name": "timestamp",
          "type": "uint256"
        },
        {
          "internalType": "bool",
          "name": "approved",
          "type": "bool"
        }
      ],
      "stateMutability": "view",
      "type": "function"
    },
    {
      "inputs": [
        {
          "internalType": "address",
          "name": "patientAddress",
          "type": "address"
        },
        {
          "internalType": "address",
          "name": "doctor",
          "type": "address"
        }
      ],
      "name": "getDoctorAccess",
      "outputs": [
        {
          "internalType": "bytes32[]",
          "name": "authorizedRecords",
          "type": "bytes32[]"
        },
        {
          "internalType": "uint256",
          "name": "expiresAt",
          "type": "uint256"
        },
        {
          "internalType": "string",
          "name": "sharedDataCid",
          "type": "string"
        },
        {
          "internalType": "bool",
          "name": "exists",
          "type": "bool"
        }
      ],
      "stateMutability": "view",
      "type": "function"
    },
    {
      "inputs": [
        {
          "internalType": "address",
          "name": "patientAddress",
          "type": "address"
        }
      ],
      "name": "getEmergencyDataCid",
      "outputs": [
        {
          "internalType": "string",
          "name": "",
          "type": "string"
        }
      ],
      "stateMutability": "view",
      "type": "function"
    },
    {
      "inputs": [
        {
          "internalType": "address",
          "name": "patientAddress",
          "type": "address"
        }
      ],
      "name": "getPendingRequests",
      "outputs": [
        {
          "internalType": "bytes32[]",
          "name": "",
          "type": "bytes32[]"
        }
      ],
      "stateMutability": "view",
      "type": "function"
    },
    {
      "inputs": [
        {
          "internalType": "address",
          "name": "patientAddress",
          "type": "address"
        },
        {
          "internalType": "bytes32",
          "name": "recordId",
          "type": "bytes32"
        }
      ],
      "name": "getRecord",
      "outputs": [
        {
          "internalType": "string",
          "name": "cid",
          "type": "string"
        },
        {
          "internalType": "uint256",
          "name": "timestamp",
          "type": "uint256"
        },
        {
          "internalType": "address",
          "name": "provider",
          "type": "address"
        },
        {
          "internalType": "uint256",
          "name": "version",
          "type": "uint256"
        }
      ],
      "stateMutability": "view",
      "type": "function"
    },
    {
      "inputs": [
        {
          "internalType": "address",
          "name": "patientAddress",
          "type": "address"
        }
      ],
      "name": "getRecordIds",
      "outputs": [
        {
          "internalType": "bytes32[]",
          "name": "",
          "type": "bytes32[]"
        }
      ],
      "stateMutability": "view",
      "type": "function"
    },
    {
      "inputs": [
        {
          "internalType": "address",
          "name": "provider",
          "type": "address"
        }
      ],
      "name": "grantAccess",
      "outputs": [],
      "stateMutability": "nonpayable",
      "type": "function"
    },
    {
      "inputs": [
        {
          "internalType": "address",
          "name": "patientAddress",
          "type": "address"
        },
        {
          "internalType": "address",
          "name": "provider",
          "type": "address"
        }
      ],
      "name": "hasAccess",
      "outputs": [
        {
          "internalType": "bool",
          "name": "",
          "type": "bool"
        }
      ],
      "stateMutability": "view",
      "type": "function"
    },
    {
      "inputs": [
        {
          "internalType": "address",
          "name": "patientAddress",
          "type": "address"
        },
        {
          "internalType": "address",
          "name": "doctor",
          "type": "address"
        },
        {
          "internalType": "bytes32",
          "name": "recordId",
          "type": "bytes32"
        }
      ],
      "name": "hasDoctorAccess",
      "outputs": [
        {
          "internalType": "bool",
          "name": "",
          "type": "bool"
        }
      ],
      "stateMutability": "view",
      "type": "function"
    },
    {
      "inputs": [
        {
          "internalType": "address",
          "name": "patientAddress",
          "type": "address"
        }
      ],
      "name": "isEmergencyAccessAllowed",
      "outputs": [
        {
          "internalType": "bool",
          "name": "",
          "type": "bool"
        }
      ],
      "stateMutability": "view",
      "type": "function"
    },
    {
      "inputs": [],
      "name": "registerPatient",
      "outputs": [],
      "stateMutability": "nonpayable",
      "type": "function"
    },
    {
      "inputs": [
        {
          "internalType": "address",
          "name": "patientAddress",
          "type": "address"
        },
        {
          "internalType": "bytes32[]",
          "name": "requestedRecords",
          "type": "bytes32[]"
        },
        {
          "internalType": "string",
          "name": "reason",
          "type": "string"
        },
        {
          "internalType": "uint256",
          "name": "durationInDays",
          "type": "uint256"
        }
      ],
      "name": "requestAccess",
      "outputs": [
        {
          "internalType": "bytes32",
          "name": "requestId",
          "type": "bytes32"
        }
      ],
      "stateMutability": "nonpayable",
      "type": "function"
    },
    {
      "inputs": [
        {
          "internalType": "address",
          "name": "provider",
          "type": "address"
        }
      ],
      "name": "revokeAccess",
      "outputs": [],
      "stateMutability": "nonpayable",
      "type": "function"
    },
    {
      "inputs": [
        {
          "internalType": "address",
          "name": "doctor",
          "type": "address"
        }
      ],
      "name": "revokeDoctorAccess",
      "outputs": [],
      "stateMutability": "nonpayable",
      "type": "function"
    },
    {
      "inputs": [
        {
          "internalType": "bool",
          "name": "allow",
          "type": "bool"
        }
      ],
      "name": "setEmergencyAccess",
      "outputs": [],
      "stateMutability": "nonpayable",
      "type": "function"
    },
    {
      "inputs": [
        {
          "internalType": "string",
          "name": "cid",
          "type": "string"
        }
      ],
      "name": "updateEmergencyData",
      "outputs": [],
      "stateMutability": "nonpayable",
      "type": "function"
    },
    {
      "inputs": [
        {
          "internalType": "address",
          "name": "patientAddress",
          "type": "address"
        },
        {
          "internalType": "bytes32",
          "name": "recordId",
          "type": "bytes32"
        },
        {
          "internalType": "string",
          "name": "newCid",
          "type": "string"
        }
      ],
      "name": "updateRecord",
      "outputs": [],
      "stateMutability": "nonpayable",
      "type": "function"
    }
  ],
  "bytecode": "0x6080604052348015600f57600080fd5b5061585b8061001f6000396000f3fe608060405234801561001057600080fd5b50600436106101425760003560e01c80637e162daa116100b8578063dc7c54bb1161007c578063dc7c54bb14610387578063e133dde0146103a3578063e731cf58146103d3578063efc8005c146103ef578063f05bfa7b14610425578063fb89c88d1461045557610142565b80637e162daa146102d157806381ac7a4914610301578063822d38851461033157806385e685311461033b578063ce132c781461035757610142565b80632c30b8291161010a5780632c30b829146101e75780633aef11b1146102175780633df95ab81461024a57806341d724b41461026657806370f716cd146102825780637319e8771461029e57610142565b80630ae5e739146101475780631709ef07146101635780631a301677146101935780631be1a24c146101af5780632688b2d1146101cb575b600080fd5b610161600480360381019061015c9190613d29565b610471565b005b61017d60048036038101906101789190613d56565b610713565b60405161018a9190613db1565b60405180910390f35b6101ad60048036038101906101a89190613e9d565b6107a9565b005b6101c960048036038101906101c49190613f7b565b610d34565b005b6101e560048036038101906101e09190614010565b611141565b005b61020160048036038101906101fc9190613d29565b611394565b60405161020e919061411b565b60405180910390f35b610231600480360381019061022c919061413d565b611652565b604051610241949392919061422b565b60405180910390f35b610264600480360381019061025f9190613d29565b6119f6565b005b610280600480360381019061027b9190613d29565b611bde565b005b61029c60048036038101906102979190614277565b611d60565b005b6102b860048036038101906102b39190613d56565b611ff5565b6040516102c894939291906142a4565b60405180910390f35b6102eb60048036038101906102e69190613d29565b612241565b6040516102f891906142f7565b60405180910390f35b61031b60048036038101906103169190614319565b61246c565b60405161032891906143cf565b60405180910390f35b6103396129b1565b005b61035560048036038101906103509190613d29565b612b9c565b005b610371600480360381019061036c9190613d29565b612d00565b60405161037e9190613db1565b60405180910390f35b6103a1600480360381019061039c91906143ea565b612d58565b005b6103bd60048036038101906103b8919061445e565b613213565b6040516103ca9190613db1565b60405180910390f35b6103ed60048036038101906103e891906144dd565b613326565b005b61040960048036038101906104049190614277565b6134d6565b60405161041c979695949392919061450a565b60405180910390f35b61043f600480360381019061043a9190613d29565b61379a565b60405161044c919061411b565b60405180910390f35b61046f600480360381019061046a9190613d56565b61389f565b005b6000803373ffffffffffffffffffffffffffffffffffffffff1673ffffffffffffffffffffffffffffffffffffffff16815260200190815260200160002060040160009054906101000a900460ff1661061f5760016000803373ffffffffffffffffffffffffffffffffffffffff1673ffffffffffffffffffffffffffffffffffffffff16815260200190815260200160002060040160006101000a81548160ff02191690831515021790555060016000803373ffffffffffffffffffffffffffffffffffffffff1673ffffffffffffffffffffffffffffffffffffffff16815260200190815260200160002060060160006101000a81548160ff0219169083151502179055506003339080600181540180825580915050600190039060005260206000200160009091909190916101000a81548173ffffffffffffffffffffffffffffffffffffffff021916908373ffffffffffffffffffffffffffffffffffffffff1602179055503373ffffffffffffffffffffffffffffffffffffffff167fc9fa2003fca4ce0dfc8cb0deae32266b715536df6685365b05b5be96ede8e49c60405160405180910390a25b60016000803373ffffffffffffffffffffffffffffffffffffffff1673ffffffffffffffffffffffffffffffffffffffff16815260200190815260200160002060010160008373ffffffffffffffffffffffffffffffffffffffff1673ffffffffffffffffffffffffffffffffffffffff16815260200190815260200160002060006101000a81548160ff0219169083151502179055508073ffffffffffffffffffffffffffffffffffffffff163373ffffffffffffffffffffffffffffffffffffffff167f9f520b3bfc56d06f7065d10b4683b3f57ac8895d5026cd176dee95ce1454cb8d60405160405180910390a350565b60008060008473ffffffffffffffffffffffffffffffffffffffff1673ffffffffffffffffffffffffffffffffffffffff16815260200190815260200160002060010160008373ffffffffffffffffffffffffffffffffffffffff1673ffffffffffffffffffffffffffffffffffffffff16815260200190815260200160002060009054906101000a900460ff16905092915050565b846000808273ffffffffffffffffffffffffffffffffffffffff1673ffffffffffffffffffffffffffffffffffffffff16815260200190815260200160002060010160003373ffffffffffffffffffffffffffffffffffffffff1673ffffffffffffffffffffffffffffffffffffffff16815260200190815260200160002060009054906101000a900460ff168061086c57508073ffffffffffffffffffffffffffffffffffffffff163373ffffffffffffffffffffffffffffffffffffffff16145b8061098e57506000808273ffffffffffffffffffffffffffffffffffffffff1673ffffffffffffffffffffffffffffffffffffffff16815260200190815260200160002060020160003373ffffffffffffffffffffffffffffffffffffffff1673ffffffffffffffffffffffffffffffffffffffff16815260200190815260200160002060030160009054906101000a900460ff16801561098d5750426000808373ffffffffffffffffffffffffffffffffffffffff1673ffffffffffffffffffffffffffffffffffffffff16815260200190815260200160002060020160003373ffffffffffffffffffffffffffffffffffffffff1673ffffffffffffffffffffffffffffffffffffffff16815260200190815260200160002060010154115b5b6109cd576040517f08c379a00000000000000000000000000000000000000000000000000000000081526004016109c4906145d3565b60405180910390fd5b856000808273ffffffffffffffffffffffffffffffffffffffff1673ffffffffffffffffffffffffffffffffffffffff16815260200190815260200160002060040160009054906101000a900460ff16610a5c576040517f08c379a0000000000000000000000000000000000000000000000000000000008152600401610a539061463f565b60405180910390fd5b6000808873ffffffffffffffffffffffffffffffffffffffff1673ffffffffffffffffffffffffffffffffffffffff168152602001908152602001600020600001600087815260200190815260200160002060040160009054906101000a900460ff1615610aff576040517f08c379a0000000000000000000000000000000000000000000000000000000008152600401610af6906146ab565b60405180910390fd5b60006040518060a0016040528087878080601f016020809104026020016040519081016040528093929190818152602001838380828437600081840152601f19601f8201169050808301925050505050505081526020018581526020013373ffffffffffffffffffffffffffffffffffffffff16815260200160018152602001600115158152509050806000808a73ffffffffffffffffffffffffffffffffffffffff1673ffffffffffffffffffffffffffffffffffffffff16815260200190815260200160002060000160008981526020019081526020016000206000820151816000019081610bf09190614906565b506020820151816001015560408201518160020160006101000a81548173ffffffffffffffffffffffffffffffffffffffff021916908373ffffffffffffffffffffffffffffffffffffffff1602179055506060820151816003015560808201518160040160006101000a81548160ff0219169083151502179055509050506000808973ffffffffffffffffffffffffffffffffffffffff1673ffffffffffffffffffffffffffffffffffffffff168152602001908152602001600020600301879080600181540180825580915050600190039060005260206000200160009091909190915055868873ffffffffffffffffffffffffffffffffffffffff167f4c31046eb6e7809d47aba243796b33419d966b6e1b998ed244b5185dad0db828888833604051610d2293929190614a14565b60405180910390a35050505050505050565b60006001600087815260200190815260200160002090508060060160019054906101000a900460ff16610d9c576040517f08c379a0000000000000000000000000000000000000000000000000000000008152600401610d9390614a92565b60405180910390fd5b3373ffffffffffffffffffffffffffffffffffffffff168160010160009054906101000a900473ffffffffffffffffffffffffffffffffffffffff1673ffffffffffffffffffffffffffffffffffffffff1614610e2e576040517f08c379a0000000000000000000000000000000000000000000000000000000008152600401610e2590614afe565b60405180910390fd5b8060060160009054906101000a900460ff1615610e80576040517f08c379a0000000000000000000000000000000000000000000000000000000008152600401610e7790614b6a565b60405180910390fd5b60008585905011610ec6576040517f08c379a0000000000000000000000000000000000000000000000000000000008152600401610ebd90614bd6565b60405180910390fd5b60018160060160006101000a81548160ff0219169083151502179055506000816004015442610ef59190614c25565b90506040518060800160405280878780806020026020016040519081016040528093929190818152602001838360200280828437600081840152601f19601f82011690508083019250505050505050815260200182815260200185858080601f016020809104026020016040519081016040528093929190818152602001838380828437600081840152601f19601f820116905080830192505050505050508152602001600115158152506000803373ffffffffffffffffffffffffffffffffffffffff1673ffffffffffffffffffffffffffffffffffffffff16815260200190815260200160002060020160008460000160009054906101000a900473ffffffffffffffffffffffffffffffffffffffff1673ffffffffffffffffffffffffffffffffffffffff1673ffffffffffffffffffffffffffffffffffffffff168152602001908152602001600020600082015181600001908051906020019061105e929190613bd9565b5060208201518160010155604082015181600201908161107e9190614906565b5060608201518160030160006101000a81548160ff0219169083151502179055509050506110ac3388613ad5565b3373ffffffffffffffffffffffffffffffffffffffff168260000160009054906101000a900473ffffffffffffffffffffffffffffffffffffffff1673ffffffffffffffffffffffffffffffffffffffff16887f4eac791aa4ecb2402b9bf04e3ac5be51b4528111c4a2d78a48753b4b3667807b8787604051611130929190614c59565b60405180910390a450505050505050565b6000803373ffffffffffffffffffffffffffffffffffffffff1673ffffffffffffffffffffffffffffffffffffffff16815260200190815260200160002060040160009054906101000a900460ff166112ef5760016000803373ffffffffffffffffffffffffffffffffffffffff1673ffffffffffffffffffffffffffffffffffffffff16815260200190815260200160002060040160006101000a81548160ff02191690831515021790555060016000803373ffffffffffffffffffffffffffffffffffffffff1673ffffffffffffffffffffffffffffffffffffffff16815260200190815260200160002060060160006101000a81548160ff0219169083151502179055506003339080600181540180825580915050600190039060005260206000200160009091909190916101000a81548173ffffffffffffffffffffffffffffffffffffffff021916908373ffffffffffffffffffffffffffffffffffffffff1602179055503373ffffffffffffffffffffffffffffffffffffffff167fc9fa2003fca4ce0dfc8cb0deae32266b715536df6685365b05b5be96ede8e49c60405160405180910390a25b81816000803373ffffffffffffffffffffffffffffffffffffffff1673ffffffffffffffffffffffffffffffffffffffff168152602001908152602001600020600501918261133f929190614c88565b503373ffffffffffffffffffffffffffffffffffffffff167fb4d20c2ba809a5c09d13433408ae14efbc95a66ba33c0cf4606865a34812c3288383604051611388929190614c59565b60405180910390a25050565b6060816000808273ffffffffffffffffffffffffffffffffffffffff1673ffffffffffffffffffffffffffffffffffffffff16815260200190815260200160002060010160003373ffffffffffffffffffffffffffffffffffffffff1673ffffffffffffffffffffffffffffffffffffffff16815260200190815260200160002060009054906101000a900460ff168061145957508073ffffffffffffffffffffffffffffffffffffffff163373ffffffffffffffffffffffffffffffffffffffff16145b8061157b57506000808273ffffffffffffffffffffffffffffffffffffffff1673ffffffffffffffffffffffffffffffffffffffff16815260200190815260200160002060020160003373ffffffffffffffffffffffffffffffffffffffff1673ffffffffffffffffffffffffffffffffffffffff16815260200190815260200160002060030160009054906101000a900460ff16801561157a5750426000808373ffffffffffffffffffffffffffffffffffffffff1673ffffffffffffffffffffffffffffffffffffffff16815260200190815260200160002060020160003373ffffffffffffffffffffffffffffffffffffffff1673ffffffffffffffffffffffffffffffffffffffff16815260200190815260200160002060010154115b5b6115ba576040517f08c379a00000000000000000000000000000000000000000000000000000000081526004016115b1906145d3565b60405180910390fd5b6000808473ffffffffffffffffffffffffffffffffffffffff1673ffffffffffffffffffffffffffffffffffffffff16815260200190815260200160002060030180548060200260200160405190810160405280929190818152602001828054801561164557602002820191906000526020600020905b815481526020019060010190808311611631575b5050505050915050919050565b60606000806000856000808273ffffffffffffffffffffffffffffffffffffffff1673ffffffffffffffffffffffffffffffffffffffff16815260200190815260200160002060010160003373ffffffffffffffffffffffffffffffffffffffff1673ffffffffffffffffffffffffffffffffffffffff16815260200190815260200160002060009054906101000a900460ff168061171c57508073ffffffffffffffffffffffffffffffffffffffff163373ffffffffffffffffffffffffffffffffffffffff16145b8061183e57506000808273ffffffffffffffffffffffffffffffffffffffff1673ffffffffffffffffffffffffffffffffffffffff16815260200190815260200160002060020160003373ffffffffffffffffffffffffffffffffffffffff1673ffffffffffffffffffffffffffffffffffffffff16815260200190815260200160002060030160009054906101000a900460ff16801561183d5750426000808373ffffffffffffffffffffffffffffffffffffffff1673ffffffffffffffffffffffffffffffffffffffff16815260200190815260200160002060020160003373ffffffffffffffffffffffffffffffffffffffff1673ffffffffffffffffffffffffffffffffffffffff16815260200190815260200160002060010154115b5b61187d576040517f08c379a0000000000000000000000000000000000000000000000000000000008152600401611874906145d3565b60405180910390fd5b60008060008973ffffffffffffffffffffffffffffffffffffffff1673ffffffffffffffffffffffffffffffffffffffff168152602001908152602001600020600001600088815260200190815260200160002090508060040160009054906101000a900460ff16611924576040517f08c379a000000000000000000000000000000000000000000000000000000000815260040161191b90614da4565b60405180910390fd5b8060000181600101548260020160009054906101000a900473ffffffffffffffffffffffffffffffffffffffff16836003015483805461196390614729565b80601f016020809104026020016040519081016040528092919081815260200182805461198f90614729565b80156119dc5780601f106119b1576101008083540402835291602001916119dc565b820191906000526020600020905b8154815290600101906020018083116119bf57829003601f168201915b505050505093509550955095509550505092959194509250565b6000803373ffffffffffffffffffffffffffffffffffffffff1673ffffffffffffffffffffffffffffffffffffffff16815260200190815260200160002060020160008273ffffffffffffffffffffffffffffffffffffffff1673ffffffffffffffffffffffffffffffffffffffff16815260200190815260200160002060030160009054906101000a900460ff16611ac4576040517f08c379a0000000000000000000000000000000000000000000000000000000008152600401611abb90614e10565b60405180910390fd5b6000803373ffffffffffffffffffffffffffffffffffffffff1673ffffffffffffffffffffffffffffffffffffffff16815260200190815260200160002060020160008273ffffffffffffffffffffffffffffffffffffffff1673ffffffffffffffffffffffffffffffffffffffff16815260200190815260200160002060008082016000611b539190613c26565b6001820160009055600282016000611b6b9190613c47565b6003820160006101000a81549060ff021916905550503373ffffffffffffffffffffffffffffffffffffffff168173ffffffffffffffffffffffffffffffffffffffff167ff530cd931a5da630062430efba68949b7952f227e74638b206470b1e9a71bf0060405160405180910390a350565b6000808273ffffffffffffffffffffffffffffffffffffffff1673ffffffffffffffffffffffffffffffffffffffff16815260200190815260200160002060060160009054906101000a900460ff16611c6c576040517f08c379a0000000000000000000000000000000000000000000000000000000008152600401611c6390614ea2565b60405180910390fd5b60016000808373ffffffffffffffffffffffffffffffffffffffff1673ffffffffffffffffffffffffffffffffffffffff16815260200190815260200160002060010160003373ffffffffffffffffffffffffffffffffffffffff1673ffffffffffffffffffffffffffffffffffffffff16815260200190815260200160002060006101000a81548160ff0219169083151502179055503373ffffffffffffffffffffffffffffffffffffffff168173ffffffffffffffffffffffffffffffffffffffff167ffa44ff045a811fefe6ab8b6b8a2371a436ce1bce849cb7d7124d125e709691d460405160405180910390a350565b60006001600083815260200190815260200160002090508060060160019054906101000a900460ff16611dc8576040517f08c379a0000000000000000000000000000000000000000000000000000000008152600401611dbf90614a92565b60405180910390fd5b3373ffffffffffffffffffffffffffffffffffffffff168160010160009054906101000a900473ffffffffffffffffffffffffffffffffffffffff1673ffffffffffffffffffffffffffffffffffffffff1614611e5a576040517f08c379a0000000000000000000000000000000000000000000000000000000008152600401611e5190614f0e565b60405180910390fd5b8060060160009054906101000a900460ff1615611eac576040517f08c379a0000000000000000000000000000000000000000000000000000000008152600401611ea390614b6a565b60405180910390fd5b611eb63383613ad5565b3373ffffffffffffffffffffffffffffffffffffffff168160000160009054906101000a900473ffffffffffffffffffffffffffffffffffffffff1673ffffffffffffffffffffffffffffffffffffffff16837f4a2df28f02fe9f71f1517dc21bcea2e0c63504a0710af702c03e4f7f4a39a82f60405160405180910390a460016000838152602001908152602001600020600080820160006101000a81549073ffffffffffffffffffffffffffffffffffffffff02191690556001820160006101000a81549073ffffffffffffffffffffffffffffffffffffffff0219169055600282016000611fa79190613c26565b600382016000611fb79190613c47565b600482016000905560058201600090556006820160006101000a81549060ff02191690556006820160016101000a81549060ff021916905550505050565b60606000606060003373ffffffffffffffffffffffffffffffffffffffff168673ffffffffffffffffffffffffffffffffffffffff16148061206257503373ffffffffffffffffffffffffffffffffffffffff168573ffffffffffffffffffffffffffffffffffffffff16145b6120a1576040517f08c379a000000000000000000000000000000000000000000000000000000000815260040161209890614fa0565b60405180910390fd5b60008060008873ffffffffffffffffffffffffffffffffffffffff1673ffffffffffffffffffffffffffffffffffffffff16815260200190815260200160002060020160008773ffffffffffffffffffffffffffffffffffffffff1673ffffffffffffffffffffffffffffffffffffffff1681526020019081526020016000209050806000018160010154826002018360030160009054906101000a900460ff1680156121515750428460010154115b8380548060200260200160405190810160405280929190818152602001828054801561219c57602002820191906000526020600020905b815481526020019060010190808311612188575b505050505093508180546121af90614729565b80601f01602080910402602001604051908101604052809291908181526020018280546121db90614729565b80156122285780601f106121fd57610100808354040283529160200191612228565b820191906000526020600020905b81548152906001019060200180831161220b57829003601f168201915b5050505050915094509450945094505092959194509250565b60608173ffffffffffffffffffffffffffffffffffffffff163373ffffffffffffffffffffffffffffffffffffffff16148061235c57506000808373ffffffffffffffffffffffffffffffffffffffff1673ffffffffffffffffffffffffffffffffffffffff16815260200190815260200160002060060160009054906101000a900460ff16801561235b57506000808373ffffffffffffffffffffffffffffffffffffffff1673ffffffffffffffffffffffffffffffffffffffff16815260200190815260200160002060010160003373ffffffffffffffffffffffffffffffffffffffff1673ffffffffffffffffffffffffffffffffffffffff16815260200190815260200160002060009054906101000a900460ff165b5b61239b576040517f08c379a000000000000000000000000000000000000000000000000000000000815260040161239290615032565b60405180910390fd5b6000808373ffffffffffffffffffffffffffffffffffffffff1673ffffffffffffffffffffffffffffffffffffffff16815260200190815260200160002060050180546123e790614729565b80601f016020809104026020016040519081016040528092919081815260200182805461241390614729565b80156124605780601f1061243557610100808354040283529160200191612460565b820191906000526020600020905b81548152906001019060200180831161244357829003601f168201915b50505050509050919050565b60003373ffffffffffffffffffffffffffffffffffffffff168773ffffffffffffffffffffffffffffffffffffffff16036124dc576040517f08c379a00000000000000000000000000000000000000000000000000000000081526004016124d3906150c4565b60405180910390fd5b6000808873ffffffffffffffffffffffffffffffffffffffff1673ffffffffffffffffffffffffffffffffffffffff16815260200190815260200160002060040160009054906101000a900460ff1661256a576040517f08c379a00000000000000000000000000000000000000000000000000000000081526004016125619061463f565b60405180910390fd5b600086869050116125b0576040517f08c379a00000000000000000000000000000000000000000000000000000000081526004016125a790615130565b60405180910390fd5b6000821180156125c2575061016d8211155b612601576040517f08c379a00000000000000000000000000000000000000000000000000000000081526004016125f8906151c2565b60405180910390fd5b338742888860405160200161261a9594939291906152c0565b6040516020818303038152906040528051906020012090506001600082815260200190815260200160002060060160019054906101000a900460ff1615612696576040517f08c379a000000000000000000000000000000000000000000000000000000000815260040161268d90615358565b60405180910390fd5b6000603c806018856126a89190615378565b6126b29190615378565b6126bc9190615378565b90506040518061010001604052803373ffffffffffffffffffffffffffffffffffffffff1681526020018973ffffffffffffffffffffffffffffffffffffffff168152602001888880806020026020016040519081016040528093929190818152602001838360200280828437600081840152601f19601f82011690508083019250505050505050815260200186868080601f016020809104026020016040519081016040528093929190818152602001838380828437600081840152601f19601f820116905080830192505050505050508152602001828152602001428152602001600015158152602001600115158152506001600084815260200190815260200160002060008201518160000160006101000a81548173ffffffffffffffffffffffffffffffffffffffff021916908373ffffffffffffffffffffffffffffffffffffffff16021790555060208201518160010160006101000a81548173ffffffffffffffffffffffffffffffffffffffff021916908373ffffffffffffffffffffffffffffffffffffffff160217905550604082015181600201908051906020019061286c929190613bd9565b5060608201518160030190816128829190614906565b506080820151816004015560a0820151816005015560c08201518160060160006101000a81548160ff02191690831515021790555060e08201518160060160016101000a81548160ff021916908315150217905550905050600260008973ffffffffffffffffffffffffffffffffffffffff1673ffffffffffffffffffffffffffffffffffffffff1681526020019081526020016000208290806001815401808255809150506001900390600052602060002001600090919091909150558773ffffffffffffffffffffffffffffffffffffffff163373ffffffffffffffffffffffffffffffffffffffff16837f822d03eb15a681c6f4d995d93a02f375bc78eb9bc129b5cda4c371856d2727188460405161299e91906153ba565b60405180910390a4509695505050505050565b6000803373ffffffffffffffffffffffffffffffffffffffff1673ffffffffffffffffffffffffffffffffffffffff16815260200190815260200160002060040160009054906101000a900460ff1615612a40576040517f08c379a0000000000000000000000000000000000000000000000000000000008152600401612a3790615421565b60405180910390fd5b60016000803373ffffffffffffffffffffffffffffffffffffffff1673ffffffffffffffffffffffffffffffffffffffff16815260200190815260200160002060040160006101000a81548160ff02191690831515021790555060016000803373ffffffffffffffffffffffffffffffffffffffff1673ffffffffffffffffffffffffffffffffffffffff16815260200190815260200160002060060160006101000a81548160ff0219169083151502179055506003339080600181540180825580915050600190039060005260206000200160009091909190916101000a81548173ffffffffffffffffffffffffffffffffffffffff021916908373ffffffffffffffffffffffffffffffffffffffff1602179055503373ffffffffffffffffffffffffffffffffffffffff167fc9fa2003fca4ce0dfc8cb0deae32266b715536df6685365b05b5be96ede8e49c60405160405180910390a2565b338073ffffffffffffffffffffffffffffffffffffffff163373ffffffffffffffffffffffffffffffffffffffff1614612c0b576040517f08c379a0000000000000000000000000000000000000000000000000000000008152600401612c02906154b3565b60405180910390fd5b60008060003373ffffffffffffffffffffffffffffffffffffffff1673ffffffffffffffffffffffffffffffffffffffff16815260200190815260200160002060010160008473ffffffffffffffffffffffffffffffffffffffff1673ffffffffffffffffffffffffffffffffffffffff16815260200190815260200160002060006101000a81548160ff0219169083151502179055508173ffffffffffffffffffffffffffffffffffffffff163373ffffffffffffffffffffffffffffffffffffffff167f825c8be24eb0df19500f63e86c29e7d0d951e73056b889b891d85e40938d9b6e60405160405180910390a35050565b60008060008373ffffffffffffffffffffffffffffffffffffffff1673ffffffffffffffffffffffffffffffffffffffff16815260200190815260200160002060060160009054906101000a900460ff169050919050565b836000808273ffffffffffffffffffffffffffffffffffffffff1673ffffffffffffffffffffffffffffffffffffffff16815260200190815260200160002060010160003373ffffffffffffffffffffffffffffffffffffffff1673ffffffffffffffffffffffffffffffffffffffff16815260200190815260200160002060009054906101000a900460ff1680612e1b57508073ffffffffffffffffffffffffffffffffffffffff163373ffffffffffffffffffffffffffffffffffffffff16145b80612f3d57506000808273ffffffffffffffffffffffffffffffffffffffff1673ffffffffffffffffffffffffffffffffffffffff16815260200190815260200160002060020160003373ffffffffffffffffffffffffffffffffffffffff1673ffffffffffffffffffffffffffffffffffffffff16815260200190815260200160002060030160009054906101000a900460ff168015612f3c5750426000808373ffffffffffffffffffffffffffffffffffffffff1673ffffffffffffffffffffffffffffffffffffffff16815260200190815260200160002060020160003373ffffffffffffffffffffffffffffffffffffffff1673ffffffffffffffffffffffffffffffffffffffff16815260200190815260200160002060010154115b5b612f7c576040517f08c379a0000000000000000000000000000000000000000000000000000000008152600401612f73906145d3565b60405180910390fd5b846000808273ffffffffffffffffffffffffffffffffffffffff1673ffffffffffffffffffffffffffffffffffffffff16815260200190815260200160002060040160009054906101000a900460ff1661300b576040517f08c379a00000000000000000000000000000000000000000000000000000000081526004016130029061463f565b60405180910390fd5b60008060008873ffffffffffffffffffffffffffffffffffffffff1673ffffffffffffffffffffffffffffffffffffffff168152602001908152602001600020600001600087815260200190815260200160002090508060040160009054906101000a900460ff166130b2576040517f08c379a00000000000000000000000000000000000000000000000000000000081526004016130a990614da4565b60405180910390fd5b3373ffffffffffffffffffffffffffffffffffffffff168160020160009054906101000a900473ffffffffffffffffffffffffffffffffffffffff1673ffffffffffffffffffffffffffffffffffffffff16148061313b57503373ffffffffffffffffffffffffffffffffffffffff168773ffffffffffffffffffffffffffffffffffffffff16145b61317a576040517f08c379a000000000000000000000000000000000000000000000000000000000815260040161317190615545565b60405180910390fd5b848482600001918261318d929190614c88565b5042816001018190555060018160030160008282546131ac9190614c25565b92505081905550858773ffffffffffffffffffffffffffffffffffffffff167f0f86019387107d5081860df8e9d13f1fe0705685d8d0817d1574c91fec16636b8787856003015460405161320293929190615565565b60405180910390a350505050505050565b6000806000808673ffffffffffffffffffffffffffffffffffffffff1673ffffffffffffffffffffffffffffffffffffffff16815260200190815260200160002060020160008573ffffffffffffffffffffffffffffffffffffffff1673ffffffffffffffffffffffffffffffffffffffff16815260200190815260200160002090508060030160009054906101000a900460ff1615806132b8575042816001015411155b156132c757600091505061331f565b60005b816000018054905081101561331857838260000182815481106132f0576132ef615597565b5b90600052602060002001540361330b5760019250505061331f565b80806001019150506132ca565b5060009150505b9392505050565b6000803373ffffffffffffffffffffffffffffffffffffffff1673ffffffffffffffffffffffffffffffffffffffff16815260200190815260200160002060040160009054906101000a900460ff1661347a5760016000803373ffffffffffffffffffffffffffffffffffffffff1673ffffffffffffffffffffffffffffffffffffffff16815260200190815260200160002060040160006101000a81548160ff0219169083151502179055506003339080600181540180825580915050600190039060005260206000200160009091909190916101000a81548173ffffffffffffffffffffffffffffffffffffffff021916908373ffffffffffffffffffffffffffffffffffffffff1602179055503373ffffffffffffffffffffffffffffffffffffffff167fc9fa2003fca4ce0dfc8cb0deae32266b715536df6685365b05b5be96ede8e49c60405160405180910390a25b806000803373ffffffffffffffffffffffffffffffffffffffff1673ffffffffffffffffffffffffffffffffffffffff16815260200190815260200160002060060160006101000a81548160ff02191690831515021790555050565b600080606080600080600080600160008a815260200190815260200160002090508060060160019054906101000a900460ff16613548576040517f08c379a000000000000000000000000000000000000000000000000000000000815260040161353f90614a92565b60405180910390fd5b3373ffffffffffffffffffffffffffffffffffffffff168160010160009054906101000a900473ffffffffffffffffffffffffffffffffffffffff1673ffffffffffffffffffffffffffffffffffffffff1614806135f557503373ffffffffffffffffffffffffffffffffffffffff168160000160009054906101000a900473ffffffffffffffffffffffffffffffffffffffff1673ffffffffffffffffffffffffffffffffffffffff16145b613634576040517f08c379a000000000000000000000000000000000000000000000000000000000815260040161362b90615638565b60405180910390fd5b8060000160009054906101000a900473ffffffffffffffffffffffffffffffffffffffff168160010160009054906101000a900473ffffffffffffffffffffffffffffffffffffffff168260020183600301846004015485600501548660060160009054906101000a900460ff16848054806020026020016040519081016040528092919081815260200182805480156136ed57602002820191906000526020600020905b8154815260200190600101908083116136d9575b5050505050945083805461370090614729565b80601f016020809104026020016040519081016040528092919081815260200182805461372c90614729565b80156137795780601f1061374e57610100808354040283529160200191613779565b820191906000526020600020905b81548152906001019060200180831161375c57829003601f168201915b50505050509350975097509750975097509750975050919395979092949650565b60603373ffffffffffffffffffffffffffffffffffffffff168273ffffffffffffffffffffffffffffffffffffffff161461380a576040517f08c379a0000000000000000000000000000000000000000000000000000000008152600401613801906156ca565b60405180910390fd5b600260008373ffffffffffffffffffffffffffffffffffffffff1673ffffffffffffffffffffffffffffffffffffffff16815260200190815260200160002080548060200260200160405190810160405280929190818152602001828054801561389357602002820191906000526020600020905b81548152602001906001019080831161387f575b50505050509050919050565b60008060008473ffffffffffffffffffffffffffffffffffffffff1673ffffffffffffffffffffffffffffffffffffffff16815260200190815260200160002060020160008373ffffffffffffffffffffffffffffffffffffffff1673ffffffffffffffffffffffffffffffffffffffff16815260200190815260200160002090508060030160009054906101000a900460ff16613972576040517f08c379a000000000000000000000000000000000000000000000000000000000815260040161396990615736565b60405180910390fd5b42816001015411156139b9576040517f08c379a00000000000000000000000000000000000000000000000000000000081526004016139b0906157a2565b60405180910390fd5b6000808473ffffffffffffffffffffffffffffffffffffffff1673ffffffffffffffffffffffffffffffffffffffff16815260200190815260200160002060020160008373ffffffffffffffffffffffffffffffffffffffff1673ffffffffffffffffffffffffffffffffffffffff16815260200190815260200160002060008082016000613a489190613c26565b6001820160009055600282016000613a609190613c47565b6003820160006101000a81549060ff021916905550508273ffffffffffffffffffffffffffffffffffffffff168273ffffffffffffffffffffffffffffffffffffffff167ff530cd931a5da630062430efba68949b7952f227e74638b206470b1e9a71bf0060405160405180910390a3505050565b6000600260008473ffffffffffffffffffffffffffffffffffffffff1673ffffffffffffffffffffffffffffffffffffffff168152602001908152602001600020905060005b8180549050811015613bd35782828281548110613b3b57613b3a615597565b5b906000526020600020015403613bc6578160018380549050613b5d91906157c2565b81548110613b6e57613b6d615597565b5b9060005260206000200154828281548110613b8c57613b8b615597565b5b906000526020600020018190555081805480613bab57613baa6157f6565b5b60019003818190600052602060002001600090559055613bd3565b8080600101915050613b1b565b50505050565b828054828255906000526020600020908101928215613c15579160200282015b82811115613c14578251825591602001919060010190613bf9565b5b509050613c229190613c87565b5090565b5080546000825590600052602060002090810190613c449190613c87565b50565b508054613c5390614729565b6000825580601f10613c655750613c84565b601f016020900490600052602060002090810190613c839190613ca4565b5b50565b5b80821115613ca0576000816000905550600101613c88565b5090565b5b80821115613cbd576000816000905550600101613ca5565b5090565b600080fd5b600080fd5b600073ffffffffffffffffffffffffffffffffffffffff82169050919050565b6000613cf682613ccb565b9050919050565b613d0681613ceb565b8114613d1157600080fd5b50565b600081359050613d2381613cfd565b92915050565b600060208284031215613d3f57613d3e613cc1565b5b6000613d4d84828501613d14565b91505092915050565b60008060408385031215613d6d57613d6c613cc1565b5b6000613d7b85828601613d14565b9250506020613d8c85828601613d14565b9150509250929050565b60008115159050919050565b613dab81613d96565b82525050565b6000602082019050613dc66000830184613da2565b92915050565b6000819050919050565b613ddf81613dcc565b8114613dea57600080fd5b50565b600081359050613dfc81613dd6565b92915050565b600080fd5b600080fd5b600080fd5b60008083601f840112613e2757613e26613e02565b5b8235905067ffffffffffffffff811115613e4457613e43613e07565b5b602083019150836001820283011115613e6057613e5f613e0c565b5b9250929050565b6000819050919050565b613e7a81613e67565b8114613e8557600080fd5b50565b600081359050613e9781613e71565b92915050565b600080600080600060808688031215613eb957613eb8613cc1565b5b6000613ec788828901613d14565b9550506020613ed888828901613ded565b945050604086013567ffffffffffffffff811115613ef957613ef8613cc6565b5b613f0588828901613e11565b93509350506060613f1888828901613e88565b9150509295509295909350565b60008083601f840112613f3b57613f3a613e02565b5b8235905067ffffffffffffffff811115613f5857613f57613e07565b5b602083019150836020820283011115613f7457613f73613e0c565b5b9250929050565b600080600080600060608688031215613f9757613f96613cc1565b5b6000613fa588828901613ded565b955050602086013567ffffffffffffffff811115613fc657613fc5613cc6565b5b613fd288828901613f25565b9450945050604086013567ffffffffffffffff811115613ff557613ff4613cc6565b5b61400188828901613e11565b92509250509295509295909350565b6000806020838503121561402757614026613cc1565b5b600083013567ffffffffffffffff81111561404557614044613cc6565b5b61405185828601613e11565b92509250509250929050565b600081519050919050565b600082825260208201905092915050565b6000819050602082019050919050565b61409281613dcc565b82525050565b60006140a48383614089565b60208301905092915050565b6000602082019050919050565b60006140c88261405d565b6140d28185614068565b93506140dd83614079565b8060005b8381101561410e5781516140f58882614098565b9750614100836140b0565b9250506001810190506140e1565b5085935050505092915050565b6000602082019050818103600083015261413581846140bd565b905092915050565b6000806040838503121561415457614153613cc1565b5b600061416285828601613d14565b925050602061417385828601613ded565b9150509250929050565b600081519050919050565b600082825260208201905092915050565b60005b838110156141b757808201518184015260208101905061419c565b60008484015250505050565b6000601f19601f8301169050919050565b60006141df8261417d565b6141e98185614188565b93506141f9818560208601614199565b614202816141c3565b840191505092915050565b61421681613e67565b82525050565b61422581613ceb565b82525050565b6000608082019050818103600083015261424581876141d4565b9050614254602083018661420d565b614261604083018561421c565b61426e606083018461420d565b95945050505050565b60006020828403121561428d5761428c613cc1565b5b600061429b84828501613ded565b91505092915050565b600060808201905081810360008301526142be81876140bd565b90506142cd602083018661420d565b81810360408301526142df81856141d4565b90506142ee6060830184613da2565b95945050505050565b6000602082019050818103600083015261431181846141d4565b905092915050565b6000806000806000806080878903121561433657614335613cc1565b5b600061434489828a01613d14565b965050602087013567ffffffffffffffff81111561436557614364613cc6565b5b61437189828a01613f25565b9550955050604087013567ffffffffffffffff81111561439457614393613cc6565b5b6143a089828a01613e11565b935093505060606143b389828a01613e88565b9150509295509295509295565b6143c981613dcc565b82525050565b60006020820190506143e460008301846143c0565b92915050565b6000806000806060858703121561440457614403613cc1565b5b600061441287828801613d14565b945050602061442387828801613ded565b935050604085013567ffffffffffffffff81111561444457614443613cc6565b5b61445087828801613e11565b925092505092959194509250565b60008060006060848603121561447757614476613cc1565b5b600061448586828701613d14565b935050602061449686828701613d14565b92505060406144a786828701613ded565b9150509250925092565b6144ba81613d96565b81146144c557600080fd5b50565b6000813590506144d7816144b1565b92915050565b6000602082840312156144f3576144f2613cc1565b5b6000614501848285016144c8565b91505092915050565b600060e08201905061451f600083018a61421c565b61452c602083018961421c565b818103604083015261453e81886140bd565b9050818103606083015261455281876141d4565b9050614561608083018661420d565b61456e60a083018561420d565b61457b60c0830184613da2565b98975050505050505050565b7f50726f7669646572206e6f7420617574686f72697a6564000000000000000000600082015250565b60006145bd601783614188565b91506145c882614587565b602082019050919050565b600060208201905081810360008301526145ec816145b0565b9050919050565b7f50617469656e7420646f6573206e6f7420657869737400000000000000000000600082015250565b6000614629601683614188565b9150614634826145f3565b602082019050919050565b600060208201905081810360008301526146588161461c565b9050919050565b7f5265636f726420616c7265616479206578697374730000000000000000000000600082015250565b6000614695601583614188565b91506146a08261465f565b602082019050919050565b600060208201905081810360008301526146c481614688565b9050919050565b7f4e487b7100000000000000000000000000000000000000000000000000000000600052604160045260246000fd5b7f4e487b7100000000000000000000000000000000000000000000000000000000600052602260045260246000fd5b6000600282049050600182168061474157607f821691505b602082108103614754576147536146fa565b5b50919050565b60008190508160005260206000209050919050565b60006020601f8301049050919050565b600082821b905092915050565b6000600883026147bc7fffffffffffffffffffffffffffffffffffffffffffffffffffffffffffffffff8261477f565b6147c6868361477f565b95508019841693508086168417925050509392505050565b6000819050919050565b60006148036147fe6147f984613e67565b6147de565b613e67565b9050919050565b6000819050919050565b61481d836147e8565b6148316148298261480a565b84845461478c565b825550505050565b600090565b614846614839565b614851818484614814565b505050565b5b818110156148755761486a60008261483e565b600181019050614857565b5050565b601f8211156148ba5761488b8161475a565b6148948461476f565b810160208510156148a3578190505b6148b76148af8561476f565b830182614856565b50505b505050565b600082821c905092915050565b60006148dd600019846008026148bf565b1980831691505092915050565b60006148f683836148cc565b9150826002028217905092915050565b61490f8261417d565b67ffffffffffffffff811115614928576149276146cb565b5b6149328254614729565b61493d828285614879565b600060209050601f831160018114614970576000841561495e578287015190505b61496885826148ea565b8655506149d0565b601f19841661497e8661475a565b60005b828110156149a657848901518255600182019150602085019450602081019050614981565b868310156149c357848901516149bf601f8916826148cc565b8355505b6001600288020188555050505b505050505050565b82818337600083830152505050565b60006149f38385614188565b9350614a008385846149d8565b614a09836141c3565b840190509392505050565b60006040820190508181036000830152614a2f8185876149e7565b9050614a3e602083018461421c565b949350505050565b7f5265717565737420646f6573206e6f7420657869737400000000000000000000600082015250565b6000614a7c601683614188565b9150614a8782614a46565b602082019050919050565b60006020820190508181036000830152614aab81614a6f565b9050919050565b7f4f6e6c792070617469656e742063616e20617070726f76652061636365737300600082015250565b6000614ae8601f83614188565b9150614af382614ab2565b602082019050919050565b60006020820190508181036000830152614b1781614adb565b9050919050565b7f5265717565737420616c72656164792070726f63657373656400000000000000600082015250565b6000614b54601983614188565b9150614b5f82614b1e565b602082019050919050565b60006020820190508181036000830152614b8381614b47565b9050919050565b7f4d75737420617070726f7665206174206c65617374206f6e65207265636f7264600082015250565b6000614bc0602083614188565b9150614bcb82614b8a565b602082019050919050565b60006020820190508181036000830152614bef81614bb3565b9050919050565b7f4e487b7100000000000000000000000000000000000000000000000000000000600052601160045260246000fd5b6000614c3082613e67565b9150614c3b83613e67565b9250828201905080821115614c5357614c52614bf6565b5b92915050565b60006020820190508181036000830152614c748184866149e7565b90509392505050565b600082905092915050565b614c928383614c7d565b67ffffffffffffffff811115614cab57614caa6146cb565b5b614cb58254614729565b614cc0828285614879565b6000601f831160018114614cef5760008415614cdd578287013590505b614ce785826148ea565b865550614d4f565b601f198416614cfd8661475a565b60005b82811015614d2557848901358255600182019150602085019450602081019050614d00565b86831015614d425784890135614d3e601f8916826148cc565b8355505b6001600288020188555050505b50505050505050565b7f5265636f726420646f6573206e6f742065786973740000000000000000000000600082015250565b6000614d8e601583614188565b9150614d9982614d58565b602082019050919050565b60006020820190508181036000830152614dbd81614d81565b9050919050565b7f4e6f206163746976652061636365737320666f72207468697320646f63746f72600082015250565b6000614dfa602083614188565b9150614e0582614dc4565b602082019050919050565b60006020820190508181036000830152614e2981614ded565b9050919050565b7f456d657267656e637920616363657373206e6f7420616c6c6f7765642062792060008201527f70617469656e7400000000000000000000000000000000000000000000000000602082015250565b6000614e8c602783614188565b9150614e9782614e30565b604082019050919050565b60006020820190508181036000830152614ebb81614e7f565b9050919050565b7f4f6e6c792070617469656e742063616e2064656e792061636365737300000000600082015250565b6000614ef8601c83614188565b9150614f0382614ec2565b602082019050919050565b60006020820190508181036000830152614f2781614eeb565b9050919050565b7f4e6f7420617574686f72697a656420746f20766965772061636365737320646560008201527f7461696c73000000000000000000000000000000000000000000000000000000602082015250565b6000614f8a602583614188565b9150614f9582614f2e565b604082019050919050565b60006020820190508181036000830152614fb981614f7d565b9050919050565b7f4e6f7420617574686f72697a656420746f2061636365737320656d657267656e60008201527f6379206461746100000000000000000000000000000000000000000000000000602082015250565b600061501c602783614188565b915061502782614fc0565b604082019050919050565b6000602082019050818103600083015261504b8161500f565b9050919050565b7f43616e6e6f7420726571756573742061636365737320746f20796f7572206f7760008201527f6e207265636f7264730000000000000000000000000000000000000000000000602082015250565b60006150ae602983614188565b91506150b982615052565b604082019050919050565b600060208201905081810360008301526150dd816150a1565b9050919050565b7f4d7573742072657175657374206174206c65617374206f6e65207265636f7264600082015250565b600061511a602083614188565b9150615125826150e4565b602082019050919050565b600060208201905081810360008301526151498161510d565b9050919050565b7f4475726174696f6e206d757374206265206265747765656e203120616e64203360008201527f3635206461797300000000000000000000000000000000000000000000000000602082015250565b60006151ac602783614188565b91506151b782615150565b604082019050919050565b600060208201905081810360008301526151db8161519f565b9050919050565b60008160601b9050919050565b60006151fa826151e2565b9050919050565b600061520c826151ef565b9050919050565b61522461521f82613ceb565b615201565b82525050565b6000819050919050565b61524561524082613e67565b61522a565b82525050565b600081905092915050565b600080fd5b82818337505050565b6000615270838561524b565b93507f07ffffffffffffffffffffffffffffffffffffffffffffffffffffffffffffff8311156152a3576152a2615256565b5b6020830292506152b483858461525b565b82840190509392505050565b60006152cc8288615213565b6014820191506152dc8287615213565b6014820191506152ec8286615234565b6020820191506152fd828486615264565b91508190509695505050505050565b7f5265717565737420616c72656164792065786973747300000000000000000000600082015250565b6000615342601683614188565b915061534d8261530c565b602082019050919050565b6000602082019050818103600083015261537181615335565b9050919050565b600061538382613e67565b915061538e83613e67565b925082820261539c81613e67565b915082820484148315176153b3576153b2614bf6565b5b5092915050565b60006020820190506153cf600083018461420d565b92915050565b7f50617469656e7420616c72656164792072656769737465726564000000000000600082015250565b600061540b601a83614188565b9150615416826153d5565b602082019050919050565b6000602082019050818103600083015261543a816153fe565b9050919050565b7f4f6e6c79207468652070617469656e742063616e20706572666f726d2074686960008201527f7320616374696f6e000000000000000000000000000000000000000000000000602082015250565b600061549d602883614188565b91506154a882615441565b604082019050919050565b600060208201905081810360008301526154cc81615490565b9050919050565b7f4e6f7420617574686f72697a656420746f20757064617465207468697320726560008201527f636f726400000000000000000000000000000000000000000000000000000000602082015250565b600061552f602483614188565b915061553a826154d3565b604082019050919050565b6000602082019050818103600083015261555e81615522565b9050919050565b600060408201905081810360008301526155808185876149e7565b905061558f602083018461420d565b949350505050565b7f4e487b7100000000000000000000000000000000000000000000000000000000600052603260045260246000fd5b7f4e6f7420617574686f72697a656420746f20766965772074686973207265717560008201527f6573740000000000000000000000000000000000000000000000000000000000602082015250565b6000615622602383614188565b915061562d826155c6565b604082019050919050565b6000602082019050818103600083015261565181615615565b9050919050565b7f43616e206f6e6c79207669657720796f7572206f776e2070656e64696e67207260008201527f6571756573747300000000000000000000000000000000000000000000000000602082015250565b60006156b4602783614188565b91506156bf82615658565b604082019050919050565b600060208201905081810360008301526156e3816156a7565b9050919050565b7f4e6f206163636573732065786973747320666f72207468697320646f63746f72600082015250565b6000615720602083614188565b915061572b826156ea565b602082019050919050565b6000602082019050818103600083015261574f81615713565b9050919050565b7f41636365737320686173206e6f74206578706972656420796574000000000000600082015250565b600061578c601a83614188565b915061579782615756565b602082019050919050565b600060208201905081810360008301526157bb8161577f565b9050919050565b60006157cd82613e67565b91506157d883613e67565b92508282039050818111156157f0576157ef614bf6565b5b92915050565b7f4e487b7100000000000000000000000000000000000000000000000000000000600052603160045260246000fdfea2646970667358221220e552967e32ae3532dd791d92a31d61eaca7ae60294814e47cba034b74fce26ac64736f6c634300081c0033",
  "linkReferences": {},
  "deployedLinkReferences": {}
}